:020000040000FA
:1000000008080020D5000000E7000000E90000001B
:1000100000000000000000000000000000000000E0
:10002000000000000000000000000000EB000000E5
:100030000000000000000000ED000000EF000000E4
:10004000F1000000F1000000F1000000F1000000EC
:10005000F100000000000000F1000000F1000000CD
:10006000F1000000F1000000F1000000F1000000CC
:10007000F1000000F1000000F1000000F1000000BC
:10008000F1000000F1000000F1000000F1000000AC
:10009000F1000000F1000000F1000000F10000009C
:1000A000F1000000F100000000000000000000006E
:1000B0000000000000000000000000000000000040
:1000C0000348854600F01CF8004800471502000070
:1000D00008080020074802680F210A43026006480A
:1000E000804706480047FEE7FEE7FEE7FEE7FEE73B
:1000F000FEE700002405004025010000C1000000CB
:10010000064C0125064E05E02046E36807C82B4350
:1001100098471034B442F7D3FFF7D6FF2803000006
:100120003803000010B500F043F8002805D0074858
:1001300007494860C8130749886100F01FF8002884
:1001400002D001200449886010BD0000DFFF07C015
:1001500000050040006C00400006004002E008C8B6
:10016000121F08C1002AFAD170477047002001E031
:1001700001C1121F002AFBD1704700000B48008C00
:10018000C0B2012810D10948808C0007000F0BD1A4
:100190000648806AF0210840402805D10348C06A1B
:1001A000084201D1012070470020FCE7C00F00F099
:1001B0001748008CC0B2012827D11548808C000751
:1001C000000F22D11248806AF021084205D1104860
:1001D000C06A084201D1012070470D48806AF021B1
:1001E0000840102805D10A48C06A084201D1012000
:1001F000F2E70748806AF0210840302805D104481A
:10020000C06A084201D10120E6E70020E4E70000CF
:10021000C00F00F008B500200B230A22092100902E
:10022000082000F021F800BF02A000F06DF800BF28
:1002300000BFFEE7200A0D53746172743A2000007B
:1002400010B58A0005231B07072424021B1984000C
:100250001A5110BD01210522120707231B02D218D3
:100260008300D15070470000F8B507460C4615468C
:100270001E4618480078012800D1F8BD2046FFF737
:10028000E9FF00213046FFF7DBFF1348C4604661F9
:10029000069800280DD03846FFF7DCFF00212846DD
:1002A000FFF7CEFF0C480561876001200A49403105
:1002B000C8620A48084948620420086001200849C9
:1002C00088600860002007498860012001490870A3
:1002D00000BFD2E7040000200025004000E0D70165
:1002E00000200040002100400549C86100BF0549C9
:1002F000C9690129FBD10021024AD1617047000080
:10030000002500400021004030B503460025284666
:100310006D1C1C5C05E02046FFF7E6FF28466D1CBF
:100320001C5C002CF7D130BD380300000000002019
:10033000080000005C0100000024F4000000000040
:04000005000000C136
:00000001FF
